{
  "_format": "hh-sol-artifact-1",
  "contractName": "Elekton",
  "sourceName": "contracts/Elekton.sol",
  "abi": [
    {
      "anonymous": false,
      "inputs": [
        {
          "indexed": false,
          "internalType": "uint256",
          "name": "_index",
          "type": "uint256"
        }
      ],
      "name": "BallotCreated",
      "type": "event"
    },
    {
      "anonymous": false,
      "inputs": [
        {
          "indexed": true,
          "internalType": "uint256",
          "name": "_index",
          "type": "uint256"
        },
        {
          "indexed": false,
          "internalType": "uint256",
          "name": "_decryptionKey",
          "type": "uint256"
        }
      ],
      "name": "DecryptionKeyPublished",
      "type": "event"
    },
    {
      "anonymous": false,
      "inputs": [
        {
          "indexed": false,
          "internalType": "address",
          "name": "_address",
          "type": "address"
        },
        {
          "indexed": false,
          "internalType": "bytes32",
          "name": "_data",
          "type": "bytes32"
        }
      ],
      "name": "UserCreated",
      "type": "event"
    },
    {
      "anonymous": false,
      "inputs": [
        {
          "indexed": false,
          "internalType": "address",
          "name": "_address",
          "type": "address"
        },
        {
          "indexed": false,
          "internalType": "bytes32",
          "name": "_data",
          "type": "bytes32"
        }
      ],
      "name": "UserUpdated",
      "type": "event"
    },
    {
      "anonymous": false,
      "inputs": [
        {
          "indexed": true,
          "internalType": "uint256",
          "name": "_index",
          "type": "uint256"
        },
        {
          "indexed": false,
          "internalType": "uint256",
          "name": "_vote",
          "type": "uint256"
        }
      ],
      "name": "VoteAdded",
      "type": "event"
    },
    {
      "inputs": [
        {
          "internalType": "uint256",
          "name": "",
          "type": "uint256"
        }
      ],
      "name": "ballots",
      "outputs": [
        {
          "internalType": "bytes32",
          "name": "data",
          "type": "bytes32"
        },
        {
          "internalType": "address",
          "name": "admin",
          "type": "address"
        },
        {
          "internalType": "uint256",
          "name": "smtRoot",
          "type": "uint256"
        },
        {
          "internalType": "uint256",
          "name": "startDate",
          "type": "uint256"
        },
        {
          "internalType": "uint256",
          "name": "endDate",
          "type": "uint256"
        },
        {
          "internalType": "uint256",
          "name": "decryptionKey",
          "type": "uint256"
        }
      ],
      "stateMutability": "view",
      "type": "function"
    },
    {
      "inputs": [
        {
          "internalType": "bytes32",
          "name": "_data",
          "type": "bytes32"
        },
        {
          "internalType": "uint256",
          "name": "_smtRoot",
          "type": "uint256"
        },
        {
          "internalType": "uint256",
          "name": "_startDate",
          "type": "uint256"
        },
        {
          "internalType": "uint256",
          "name": "_endDate",
          "type": "uint256"
        }
      ],
      "name": "createBallot",
      "outputs": [],
      "stateMutability": "nonpayable",
      "type": "function"
    },
    {
      "inputs": [
        {
          "internalType": "bytes32",
          "name": "_data",
          "type": "bytes32"
        }
      ],
      "name": "createUser",
      "outputs": [],
      "stateMutability": "nonpayable",
      "type": "function"
    },
    {
      "inputs": [
        {
          "internalType": "uint256",
          "name": "_ballotIndex",
          "type": "uint256"
        },
        {
          "internalType": "uint256",
          "name": "_decryptionKey",
          "type": "uint256"
        }
      ],
      "name": "publishDecryptionKey",
      "outputs": [],
      "stateMutability": "nonpayable",
      "type": "function"
    },
    {
      "inputs": [
        {
          "internalType": "address",
          "name": "",
          "type": "address"
        }
      ],
      "name": "users",
      "outputs": [
        {
          "internalType": "bytes32",
          "name": "",
          "type": "bytes32"
        }
      ],
      "stateMutability": "view",
      "type": "function"
    },
    {
      "inputs": [
        {
          "internalType": "uint256[2]",
          "name": "a",
          "type": "uint256[2]"
        },
        {
          "internalType": "uint256[2][2]",
          "name": "b",
          "type": "uint256[2][2]"
        },
        {
          "internalType": "uint256[2]",
          "name": "c",
          "type": "uint256[2]"
        },
        {
          "internalType": "uint256[4]",
          "name": "input",
          "type": "uint256[4]"
        }
      ],
      "name": "verifyProof",
      "outputs": [
        {
          "internalType": "bool",
          "name": "r",
          "type": "bool"
        }
      ],
      "stateMutability": "view",
      "type": "function"
    },
    {
      "inputs": [
        {
          "internalType": "uint256[2]",
          "name": "_a",
          "type": "uint256[2]"
        },
        {
          "internalType": "uint256[2][2]",
          "name": "_b",
          "type": "uint256[2][2]"
        },
        {
          "internalType": "uint256[2]",
          "name": "_c",
          "type": "uint256[2]"
        },
        {
          "internalType": "uint256[4]",
          "name": "_input",
          "type": "uint256[4]"
        }
      ],
      "name": "vote",
      "outputs": [],
      "stateMutability": "nonpayable",
      "type": "function"
    },
    {
      "inputs": [
        {
          "internalType": "uint256",
          "name": "",
          "type": "uint256"
        }
      ],
      "name": "voteNullifier",
      "outputs": [
        {
          "internalType": "bool",
          "name": "",
          "type": "bool"
        }
      ],
      "stateMutability": "view",
      "type": "function"
    }
  ],
  "bytecode": "0x608060405234801561001057600080fd5b506124ec806100206000396000f3fe608060405234801561001057600080fd5b50600436106100885760003560e01c8063abf7bfd81161005b578063abf7bfd81461033c578063ae80d4b31461036a578063d9a4d177146103b6578063f839a790146103ee57610088565b80632e0a9cff1461008d5780635c632b38146100da5780635fe8c13b1461016b578063a87430ba146102e4575b600080fd5b6100d860048036036101808110156100a457600080fd5b8101908080604001909192919290806080019091929192908060400190919291929080608001909192919290505050610434565b005b610106600480360360208110156100f057600080fd5b81019080803590602001909291905050506109f7565b604051808781526020018673ffffffffffffffffffffffffffffffffffffffff1673ffffffffffffffffffffffffffffffffffffffff168152602001858152602001848152602001838152602001828152602001965050505050505060405180910390f35b6102ca600480360361018081101561018257600080fd5b8101908080604001906002806020026040519081016040528092919082600260200280828437600081840152601f19601f82011690508083019250505050505091929192908060800190600280602002604051908101604052809291906000905b82821015610237578382604002016002806020026040519081016040528092919082600260200280828437600081840152601f19601f820116905080830192505050505050815260200190600101906101e3565b50505050919291929080604001906002806020026040519081016040528092919082600260200280828437600081840152601f19601f820116905080830192505050505050919291929080608001906004806020026040519081016040528092919082600460200280828437600081840152601f19601f8201169050808301925050505050509192919290505050610a60565b604051808215151515815260200191505060405180910390f35b610326600480360360208110156102fa57600080fd5b81019080803573ffffffffffffffffffffffffffffffffffffffff169060200190929190505050610c73565b6040518082815260200191505060405180910390f35b6103686004803603602081101561035257600080fd5b8101908080359060200190929190505050610c8b565b005b6103b46004803603608081101561038057600080fd5b8101908080359060200190929190803590602001909291908035906020019092919080359060200190929190505050610eb1565b005b6103ec600480360360408110156103cc57600080fd5b8101908080359060200190929190803590602001909291905050506111c4565b005b61041a6004803603602081101561040457600080fd5b8101908080359060200190929190505050611395565b604051808215151515815260200191505060405180910390f35b6001805490508160026004811061044757fe5b6020020135106104bf576040517f08c379a00000000000000000000000000000000000000000000000000000000081526004018080602001828103825260048152602001807f453230300000000000000000000000000000000000000000000000000000000081525060200191505060405180910390fd5b6001816002600481106104ce57fe5b6020020135815481106104dd57fe5b9060005260206000209060070201600301544211610563576040517f08c379a00000000000000000000000000000000000000000000000000000000081526004018080602001828103825260048152602001807f453230310000000000000000000000000000000000000000000000000000000081525060200191505060405180910390fd5b60018160026004811061057257fe5b60200201358154811061058157fe5b9060005260206000209060070201600401544210610607576040517f08c379a00000000000000000000000000000000000000000000000000000000081526004018080602001828103825260048152602001807f453230320000000000000000000000000000000000000000000000000000000081525060200191505060405180910390fd5b60018160026004811061061657fe5b60200201358154811061062557fe5b9060005260206000209060070201600201548160006004811061064457fe5b6020020135146106bc576040517f08c379a00000000000000000000000000000000000000000000000000000000081526004018080602001828103825260048152602001807f453230330000000000000000000000000000000000000000000000000000000081525060200191505060405180910390fd5b60026000826003600481106106cd57fe5b6020020135815260200190815260200160002060009054906101000a900460ff1615610761576040517f08c379a00000000000000000000000000000000000000000000000000000000081526004018080602001828103825260048152602001807f453230340000000000000000000000000000000000000000000000000000000081525060200191505060405180910390fd5b610881846002806020026040519081016040528092919082600260200280828437600081840152601f19601f82011690508083019250505050505084600280602002604051908101604052809291906000905b82821015610808578382604002016002806020026040519081016040528092919082600260200280828437600081840152601f19601f820116905080830192505050505050815260200190600101906107b4565b50505050846002806020026040519081016040528092919082600260200280828437600081840152601f19601f820116905080830192505050505050846004806020026040519081016040528092919082600460200280828437600081840152601f19601f820116905080830192505050505050610a60565b6108f3576040517f08c379a00000000000000000000000000000000000000000000000000000000081526004018080602001828103825260048152602001807f453230350000000000000000000000000000000000000000000000000000000081525060200191505060405180910390fd5b6001600260008360036004811061090657fe5b6020020135815260200190815260200160002060006101000a81548160ff02191690831515021790555060018160026004811061093f57fe5b60200201358154811061094e57fe5b90600052602060002090600702016005018160016004811061096c57fe5b60200201359080600181540180825580915050600190039060005260206000200160009091909190915055806002600481106109a457fe5b60200201357fd4d383f8ed189d1368006d33d0ae7bf1e4fe9f3f86f205ae60d7a50bbba58b38826001600481106109d757fe5b60200201356040518082815260200191505060405180910390a250505050565b60018181548110610a0457fe5b90600052602060002090600702016000915090508060000154908060010160009054906101000a900473ffffffffffffffffffffffffffffffffffffffff16908060020154908060030154908060040154908060060154905086565b6000610a6a6122ac565b604051806040016040528087600060028110610a8257fe5b6020020151815260200187600160028110610a9957fe5b602002015181525081600001819052506040518060400160405280604051806040016040528088600060028110610acc57fe5b6020020151600060028110610add57fe5b6020020151815260200188600060028110610af457fe5b6020020151600160028110610b0557fe5b60200201518152508152602001604051806040016040528088600160028110610b2a57fe5b6020020151600060028110610b3b57fe5b6020020151815260200188600160028110610b5257fe5b6020020151600160028110610b6357fe5b60200201518152508152508160200181905250604051806040016040528085600060028110610b8e57fe5b6020020151815260200185600160028110610ba557fe5b602002015181525081604001819052506060600467ffffffffffffffff81118015610bcf57600080fd5b50604051908082528060200260200182016040528015610bfe5781602001602082028036833780820191505090505b50905060008090505b6004811015610c4657848160048110610c1c57fe5b6020020151828281518110610c2d57fe5b6020026020010181815250508080600101915050610c07565b506000610c5382846113b5565b1415610c6457600192505050610c6b565b6000925050505b949350505050565b60006020528060005260406000206000915090505481565b806000803373ffffffffffffffffffffffffffffffffffffffff1673ffffffffffffffffffffffffffffffffffffffff168152602001908152602001600020541415610d3f576040517f08c379a00000000000000000000000000000000000000000000000000000000081526004018080602001828103825260048152602001807f453030300000000000000000000000000000000000000000000000000000000081525060200191505060405180910390fd5b60008060003373ffffffffffffffffffffffffffffffffffffffff1673ffffffffffffffffffffffffffffffffffffffff1681526020019081526020016000205460001c9050816000803373ffffffffffffffffffffffffffffffffffffffff1673ffffffffffffffffffffffffffffffffffffffff168152602001908152602001600020819055506000811415610e41577f18ec7dd8c4d713eb3c2e0c61825f878a47e207600626611c5bc15009c743b4b63383604051808373ffffffffffffffffffffffffffffffffffffffff1673ffffffffffffffffffffffffffffffffffffffff1681526020018281526020019250505060405180910390a1610ead565b7f6c46eb453c5219d7665e4dda98f6200b9c6978d989806dfc2d2b17dc03609c533383604051808373ffffffffffffffffffffffffffffffffffffffff1673ffffffffffffffffffffffffffffffffffffffff1681526020018281526020019250505060405180910390a15b5050565b6000801b6000803373ffffffffffffffffffffffffffffffffffffffff1673ffffffffffffffffffffffffffffffffffffffff168152602001908152602001600020541415610f68576040517f08c379a00000000000000000000000000000000000000000000000000000000081526004018080602001828103825260048152602001807f453130300000000000000000000000000000000000000000000000000000000081525060200191505060405180910390fd5b42821015610fde576040517f08c379a00000000000000000000000000000000000000000000000000000000081526004018080602001828103825260048152602001807f453130310000000000000000000000000000000000000000000000000000000081525060200191505060405180910390fd5b808210611053576040517f08c379a00000000000000000000000000000000000000000000000000000000081526004018080602001828103825260048152602001807f453130320000000000000000000000000000000000000000000000000000000081525060200191505060405180910390fd5b61105b6122df565b8481600001818152505033816020019073ffffffffffffffffffffffffffffffffffffffff16908173ffffffffffffffffffffffffffffffffffffffff168152505083816040018181525050828160600181815250508181608001818152505060018190806001815401808255809150506001900390600052602060002090600702016000909190919091506000820151816000015560208201518160010160006101000a81548173ffffffffffffffffffffffffffffffffffffffff021916908373ffffffffffffffffffffffffffffffffffffffff16021790555060408201518160020155606082015181600301556080820151816004015560a0820151816005019080519060200190611172929190612335565b5060c0820151816006015550507f8240970fe48e7326c1988bac710fa94e48ffac4c80da6f31d40e52fc71df105960018080549050036040518082815260200191505060405180910390a15050505050565b3373ffffffffffffffffffffffffffffffffffffffff16600183815481106111e857fe5b906000526020600020906007020160010160009054906101000a900473ffffffffffffffffffffffffffffffffffffffff1673ffffffffffffffffffffffffffffffffffffffff16146112a3576040517f08c379a00000000000000000000000000000000000000000000000000000000081526004018080602001828103825260048152602001807f453130340000000000000000000000000000000000000000000000000000000081525060200191505060405180910390fd5b600182815481106112b057fe5b9060005260206000209060070201600401544211611336576040517f08c379a00000000000000000000000000000000000000000000000000000000081526004018080602001828103825260048152602001807f453130350000000000000000000000000000000000000000000000000000000081525060200191505060405180910390fd5b806001838154811061134457fe5b906000526020600020906007020160060181905550817fd9ac5bed27e458b82958e4b665ee6ef0c39530418b2a3aa91b29d85e4e80992e826040518082815260200191505060405180910390a25050565b60026020528060005260406000206000915054906101000a900460ff1681565b6000807f30644e72e131a029b85045b68181585d2833e84879b9709143e1f593f000000190506113e3612382565b6113eb6115e9565b905080608001515160018651011461146b576040517f08c379a00000000000000000000000000000000000000000000000000000000081526004018080602001828103825260128152602001807f76657269666965722d6261642d696e707574000000000000000000000000000081525060200191505060405180910390fd5b6114736123c9565b6040518060400160405280600081526020016000815250905060008090505b865181101561157257838782815181106114a857fe5b602002602001015110611523576040517f08c379a000000000000000000000000000000000000000000000000000000000815260040180806020018281038252601f8152602001807f76657269666965722d6774652d736e61726b2d7363616c61722d6669656c640081525060200191505060405180910390fd5b6115638261155e8560800151600185018151811061153d57fe5b60200260200101518a858151811061155157fe5b6020026020010151611b2f565b611c2a565b91508080600101915050611492565b5061159581836080015160008151811061158857fe5b6020026020010151611c2a565b90506115cb6115a78660000151611d44565b8660200151846000015185602001518587604001518b604001518960600151611dde565b6115db57600193505050506115e3565b600093505050505b92915050565b6115f1612382565b60405180604001604052807f0b5dcd20b2c877922f1dc6b9ab7612a488a4960cf6a50d634ce5edd3b4aa752c81526020017f169014d5471334ecce07b840a4c8805ff5f56f53c9db7df42302d095eb80e8928152508160000181905250604051806040016040528060405180604001604052807f1df093d824dd1701460f1052df89350d338b2410321b80bff70ac2e82fa82ea881526020017f0760439e8ad5d8cc95834ec7f5b24c4ef0751ee6a2bf19ff47d20ded514448a8815250815260200160405180604001604052807f2537195b41b650638f1a3f1321794d0b3f8a5262d125a230fd0c8d207e7dec1981526020017f23956c43a3927d35d6ae322bcb65bddab490acd4387bc708ae55d583a96287f08152508152508160200181905250604051806040016040528060405180604001604052807f198e9393920d483a7260bfb731fb5d25f1aa493335a9e71297e485b7aef312c281526020017f1800deef121f1e76426a00665e5c4479674322d4f75edadd46debd5cd992f6ed815250815260200160405180604001604052807f090689d0585ff075ec9e99ad690c3395bc4b313370b38ef355acdadcd122975b81526020017f12c85ea5db8c6deb4aab71808dcb408fe3d1e7690c43d37b4ce6cc0166fa7daa8152508152508160400181905250604051806040016040528060405180604001604052807f1bdb443ce61ebcf93daed4215a57e1cec90ca64973023e31197a112e8cee72f681526020017f117e26c4235f42625b3404f2973059814ff260dba7176d7aae910f493a8e1fb5815250815260200160405180604001604052807f196e247a12f580e36894f256f0c122393489b4c213b3e913250feee806ca45ff81526020017f2fedff4e4bbcbf9f1c56e28a060d50eef5f54e2aab897f6b465acd2ed005ae918152508152508160600181905250600567ffffffffffffffff811180156118b557600080fd5b506040519080825280602002602001820160405280156118ef57816020015b6118dc6123c9565b8152602001906001900390816118d45790505b50816080018190525060405180604001604052807e1dd0087414967abb8f4a2e62c2dce8e3d92b97c3ff2dc43fdb52aa96e0b16781526020017f1674b6f31bd90de4bcd609d01a26002299bb8bdae149fbcde138c80b89ff59c5815250816080015160008151811061195d57fe5b602002602001018190525060405180604001604052807f27e4500c649cc54f1a0dc15705b013bf581e6e215e4a9d1bd046118b42bc2d2981526020017f0271bf25e9f22811ae3ea09da60f2aa85498d6461626284279b790f15502f52081525081608001516001815181106119ce57fe5b602002602001018190525060405180604001604052807f17f90dfe616b870acab922283a9da780bfcad51834c09be7a49fcbdc112660b781526020017f03a98276cfbb5a5081f5e4cdd480b085ef48fbbb5979a6af1f57baa6df51bd668152508160800151600281518110611a3f57fe5b602002602001018190525060405180604001604052807f0d2fe5fc14686a1f64d524f13c13c8285822417b126da0d8818d5c315618886b81526020017f1f45625b0b6e67b2c9333f90126e06cc3b74724732c9adc4c904e73c69dc854f8152508160800151600381518110611ab057fe5b602002602001018190525060405180604001604052807f296af47b4eaed470599f990192125e447eb9d7f18bd7c362fb296690dd0d8f7581526020017f0aec328a7f562cf1fac8489d3f5a8c576a486e0bdc8ce87f8f4f686386f23f4e8152508160800151600481518110611b2157fe5b602002602001018190525090565b611b376123c9565b611b3f6123e3565b836000015181600060038110611b5157fe5b602002018181525050836020015181600160038110611b6c57fe5b6020020181815250508281600260038110611b8357fe5b602002018181525050600060608360808460076107d05a03fa90508060008114611bac57611bae565bfe5b5080611c22576040517f08c379a00000000000000000000000000000000000000000000000000000000081526004018080602001828103825260128152602001807f70616972696e672d6d756c2d6661696c6564000000000000000000000000000081525060200191505060405180910390fd5b505092915050565b611c326123c9565b611c3a612405565b836000015181600060048110611c4c57fe5b602002018181525050836020015181600160048110611c6757fe5b602002018181525050826000015181600260048110611c8257fe5b602002018181525050826020015181600360048110611c9d57fe5b602002018181525050600060608360c08460066107d05a03fa90508060008114611cc657611cc8565bfe5b5080611d3c576040517f08c379a00000000000000000000000000000000000000000000000000000000081526004018080602001828103825260128152602001807f70616972696e672d6164642d6661696c6564000000000000000000000000000081525060200191505060405180910390fd5b505092915050565b611d4c6123c9565b60007f30644e72e131a029b85045b68181585d97816a916871ca8d3c208c16d87cfd47905060008360000151148015611d89575060008360200151145b15611dad576040518060400160405280600081526020016000815250915050611dd9565b60405180604001604052808460000151815260200182856020015181611dcf57fe5b0683038152509150505b919050565b60006060600467ffffffffffffffff81118015611dfa57600080fd5b50604051908082528060200260200182016040528015611e3457816020015b611e216123c9565b815260200190600190039081611e195790505b5090506060600467ffffffffffffffff81118015611e5157600080fd5b50604051908082528060200260200182016040528015611e8b57816020015b611e78612427565b815260200190600190039081611e705790505b5090508a82600081518110611e9c57fe5b60200260200101819052508882600181518110611eb557fe5b60200260200101819052508682600281518110611ece57fe5b60200260200101819052508482600381518110611ee757fe5b60200260200101819052508981600081518110611f0057fe5b60200260200101819052508781600181518110611f1957fe5b60200260200101819052508581600281518110611f3257fe5b60200260200101819052508381600381518110611f4b57fe5b6020026020010181905250611f608282611f70565b9250505098975050505050505050565b60008151835114611fe9576040517f08c379a00000000000000000000000000000000000000000000000000000000081526004018080602001828103825260168152602001807f70616972696e672d6c656e677468732d6661696c65640000000000000000000081525060200191505060405180910390fd5b600083519050600060068202905060608167ffffffffffffffff8111801561201057600080fd5b5060405190808252806020026020018201604052801561203f5781602001602082028036833780820191505090505b50905060008090505b838110156121e55786818151811061205c57fe5b60200260200101516000015182600060068402018151811061207a57fe5b60200260200101818152505086818151811061209257fe5b6020026020010151602001518260016006840201815181106120b057fe5b6020026020010181815250508581815181106120c857fe5b6020026020010151600001516000600281106120e057fe5b60200201518260026006840201815181106120f757fe5b60200260200101818152505085818151811061210f57fe5b60200260200101516000015160016002811061212757fe5b602002015182600360068402018151811061213e57fe5b60200260200101818152505085818151811061215657fe5b60200260200101516020015160006002811061216e57fe5b602002015182600460068402018151811061218557fe5b60200260200101818152505085818151811061219d57fe5b6020026020010151602001516001600281106121b557fe5b60200201518260056006840201815181106121cc57fe5b6020026020010181815250508080600101915050612048565b506121ee61244d565b6000602082602086026020860160086107d05a03fa9050806000811461221357612215565bfe5b5080612289576040517f08c379a00000000000000000000000000000000000000000000000000000000081526004018080602001828103825260158152602001807f70616972696e672d6f70636f64652d6661696c6564000000000000000000000081525060200191505060405180910390fd5b60008260006001811061229857fe5b602002015114159550505050505092915050565b60405180606001604052806122bf6123c9565b81526020016122cc612427565b81526020016122d96123c9565b81525090565b6040518060e0016040528060008019168152602001600073ffffffffffffffffffffffffffffffffffffffff16815260200160008152602001600081526020016000815260200160608152602001600081525090565b828054828255906000526020600020908101928215612371579160200282015b82811115612370578251825591602001919060010190612355565b5b50905061237e919061246f565b5090565b6040518060a001604052806123956123c9565b81526020016123a2612427565b81526020016123af612427565b81526020016123bc612427565b8152602001606081525090565b604051806040016040528060008152602001600081525090565b6040518060600160405280600390602082028036833780820191505090505090565b6040518060800160405280600490602082028036833780820191505090505090565b604051806040016040528061243a612494565b8152602001612447612494565b81525090565b6040518060200160405280600190602082028036833780820191505090505090565b61249191905b8082111561248d576000816000905550600101612475565b5090565b90565b604051806040016040528060029060208202803683378082019150509050509056fea2646970667358221220f1edcea6c7c8901b96868e4ae79c3a44384794599055155d03d8a129664bc4c964736f6c634300060b0033",
  "linkReferences": {},
  "deployedLinkReferences": {}
}