{
  "_format": "hh-sol-artifact-1",
  "contractName": "Elekton",
  "sourceName": "contracts/Elekton.sol",
  "abi": [
    {
      "anonymous": false,
      "inputs": [
        {
          "indexed": false,
          "internalType": "uint256",
          "name": "_index",
          "type": "uint256"
        }
      ],
      "name": "BallotCreated",
      "type": "event"
    },
    {
      "anonymous": false,
      "inputs": [
        {
          "indexed": true,
          "internalType": "uint256",
          "name": "_index",
          "type": "uint256"
        },
        {
          "indexed": false,
          "internalType": "uint256",
          "name": "_decryptionKey",
          "type": "uint256"
        }
      ],
      "name": "DecryptionKeyPublished",
      "type": "event"
    },
    {
      "anonymous": false,
      "inputs": [
        {
          "indexed": false,
          "internalType": "address",
          "name": "_address",
          "type": "address"
        },
        {
          "indexed": false,
          "internalType": "bytes32",
          "name": "_data",
          "type": "bytes32"
        }
      ],
      "name": "UserCreated",
      "type": "event"
    },
    {
      "anonymous": false,
      "inputs": [
        {
          "indexed": false,
          "internalType": "address",
          "name": "_address",
          "type": "address"
        },
        {
          "indexed": false,
          "internalType": "bytes32",
          "name": "_data",
          "type": "bytes32"
        }
      ],
      "name": "UserUpdated",
      "type": "event"
    },
    {
      "anonymous": false,
      "inputs": [
        {
          "indexed": true,
          "internalType": "uint256",
          "name": "_index",
          "type": "uint256"
        },
        {
          "indexed": false,
          "internalType": "uint256",
          "name": "_vote",
          "type": "uint256"
        }
      ],
      "name": "VoteAdded",
      "type": "event"
    },
    {
      "inputs": [
        {
          "internalType": "uint256",
          "name": "",
          "type": "uint256"
        }
      ],
      "name": "ballots",
      "outputs": [
        {
          "internalType": "bytes32",
          "name": "data",
          "type": "bytes32"
        },
        {
          "internalType": "address",
          "name": "admin",
          "type": "address"
        },
        {
          "internalType": "uint256",
          "name": "smtRoot",
          "type": "uint256"
        },
        {
          "internalType": "uint256",
          "name": "startDate",
          "type": "uint256"
        },
        {
          "internalType": "uint256",
          "name": "endDate",
          "type": "uint256"
        },
        {
          "internalType": "uint256",
          "name": "decryptionKey",
          "type": "uint256"
        }
      ],
      "stateMutability": "view",
      "type": "function"
    },
    {
      "inputs": [
        {
          "internalType": "bytes32",
          "name": "_data",
          "type": "bytes32"
        },
        {
          "internalType": "uint256",
          "name": "_smtRoot",
          "type": "uint256"
        },
        {
          "internalType": "uint256",
          "name": "_startDate",
          "type": "uint256"
        },
        {
          "internalType": "uint256",
          "name": "_endDate",
          "type": "uint256"
        }
      ],
      "name": "createBallot",
      "outputs": [],
      "stateMutability": "nonpayable",
      "type": "function"
    },
    {
      "inputs": [
        {
          "internalType": "bytes32",
          "name": "_data",
          "type": "bytes32"
        }
      ],
      "name": "createUser",
      "outputs": [],
      "stateMutability": "nonpayable",
      "type": "function"
    },
    {
      "inputs": [
        {
          "internalType": "uint256",
          "name": "_ballotIndex",
          "type": "uint256"
        },
        {
          "internalType": "uint256",
          "name": "_decryptionKey",
          "type": "uint256"
        }
      ],
      "name": "publishDecryptionKey",
      "outputs": [],
      "stateMutability": "nonpayable",
      "type": "function"
    },
    {
      "inputs": [
        {
          "internalType": "address",
          "name": "",
          "type": "address"
        }
      ],
      "name": "users",
      "outputs": [
        {
          "internalType": "bytes32",
          "name": "",
          "type": "bytes32"
        }
      ],
      "stateMutability": "view",
      "type": "function"
    },
    {
      "inputs": [
        {
          "internalType": "uint256[2]",
          "name": "a",
          "type": "uint256[2]"
        },
        {
          "internalType": "uint256[2][2]",
          "name": "b",
          "type": "uint256[2][2]"
        },
        {
          "internalType": "uint256[2]",
          "name": "c",
          "type": "uint256[2]"
        },
        {
          "internalType": "uint256[4]",
          "name": "input",
          "type": "uint256[4]"
        }
      ],
      "name": "verifyProof",
      "outputs": [
        {
          "internalType": "bool",
          "name": "r",
          "type": "bool"
        }
      ],
      "stateMutability": "view",
      "type": "function"
    },
    {
      "inputs": [
        {
          "internalType": "uint256[2]",
          "name": "_a",
          "type": "uint256[2]"
        },
        {
          "internalType": "uint256[2][2]",
          "name": "_b",
          "type": "uint256[2][2]"
        },
        {
          "internalType": "uint256[2]",
          "name": "_c",
          "type": "uint256[2]"
        },
        {
          "internalType": "uint256[4]",
          "name": "_input",
          "type": "uint256[4]"
        }
      ],
      "name": "vote",
      "outputs": [],
      "stateMutability": "nonpayable",
      "type": "function"
    }
  ],
  "bytecode": "0x608060405234801561001057600080fd5b5061247b806100206000396000f3fe608060405234801561001057600080fd5b506004361061007d5760003560e01c8063a87430ba1161005b578063a87430ba146102d9578063abf7bfd814610331578063ae80d4b31461035f578063d9a4d177146103ab5761007d565b80632e0a9cff146100825780635c632b38146100cf5780635fe8c13b14610160575b600080fd5b6100cd600480360361018081101561009957600080fd5b81019080806040019091929192908060800190919291929080604001909192919290806080019091929192905050506103e3565b005b6100fb600480360360208110156100e557600080fd5b81019080803590602001909291905050506109a6565b604051808781526020018673ffffffffffffffffffffffffffffffffffffffff1673ffffffffffffffffffffffffffffffffffffffff168152602001858152602001848152602001838152602001828152602001965050505050505060405180910390f35b6102bf600480360361018081101561017757600080fd5b8101908080604001906002806020026040519081016040528092919082600260200280828437600081840152601f19601f82011690508083019250505050505091929192908060800190600280602002604051908101604052809291906000905b8282101561022c578382604002016002806020026040519081016040528092919082600260200280828437600081840152601f19601f820116905080830192505050505050815260200190600101906101d8565b50505050919291929080604001906002806020026040519081016040528092919082600260200280828437600081840152601f19601f820116905080830192505050505050919291929080608001906004806020026040519081016040528092919082600460200280828437600081840152601f19601f8201169050808301925050505050509192919290505050610a0f565b604051808215151515815260200191505060405180910390f35b61031b600480360360208110156102ef57600080fd5b81019080803573ffffffffffffffffffffffffffffffffffffffff169060200190929190505050610c22565b6040518082815260200191505060405180910390f35b61035d6004803603602081101561034757600080fd5b8101908080359060200190929190505050610c3a565b005b6103a96004803603608081101561037557600080fd5b8101908080359060200190929190803590602001909291908035906020019092919080359060200190929190505050610e60565b005b6103e1600480360360408110156103c157600080fd5b810190808035906020019092919080359060200190929190505050611173565b005b600180549050816002600481106103f657fe5b60200201351061046e576040517f08c379a00000000000000000000000000000000000000000000000000000000081526004018080602001828103825260048152602001807f453230300000000000000000000000000000000000000000000000000000000081525060200191505060405180910390fd5b60018160026004811061047d57fe5b60200201358154811061048c57fe5b9060005260206000209060070201600301544211610512576040517f08c379a00000000000000000000000000000000000000000000000000000000081526004018080602001828103825260048152602001807f453230310000000000000000000000000000000000000000000000000000000081525060200191505060405180910390fd5b60018160026004811061052157fe5b60200201358154811061053057fe5b90600052602060002090600702016004015442106105b6576040517f08c379a00000000000000000000000000000000000000000000000000000000081526004018080602001828103825260048152602001807f453230320000000000000000000000000000000000000000000000000000000081525060200191505060405180910390fd5b6001816002600481106105c557fe5b6020020135815481106105d457fe5b906000526020600020906007020160020154816000600481106105f357fe5b60200201351461066b576040517f08c379a00000000000000000000000000000000000000000000000000000000081526004018080602001828103825260048152602001807f453230330000000000000000000000000000000000000000000000000000000081525060200191505060405180910390fd5b600260008260036004811061067c57fe5b6020020135815260200190815260200160002060009054906101000a900460ff1615610710576040517f08c379a00000000000000000000000000000000000000000000000000000000081526004018080602001828103825260048152602001807f453230340000000000000000000000000000000000000000000000000000000081525060200191505060405180910390fd5b610830846002806020026040519081016040528092919082600260200280828437600081840152601f19601f82011690508083019250505050505084600280602002604051908101604052809291906000905b828210156107b7578382604002016002806020026040519081016040528092919082600260200280828437600081840152601f19601f82011690508083019250505050505081526020019060010190610763565b50505050846002806020026040519081016040528092919082600260200280828437600081840152601f19601f820116905080830192505050505050846004806020026040519081016040528092919082600460200280828437600081840152601f19601f820116905080830192505050505050610a0f565b6108a2576040517f08c379a00000000000000000000000000000000000000000000000000000000081526004018080602001828103825260048152602001807f453230350000000000000000000000000000000000000000000000000000000081525060200191505060405180910390fd5b600160026000836003600481106108b557fe5b6020020135815260200190815260200160002060006101000a81548160ff0219169083151502179055506001816002600481106108ee57fe5b6020020135815481106108fd57fe5b90600052602060002090600702016005018160016004811061091b57fe5b602002013590806001815401808255809150506001900390600052602060002001600090919091909150558060026004811061095357fe5b60200201357fd4d383f8ed189d1368006d33d0ae7bf1e4fe9f3f86f205ae60d7a50bbba58b388260016004811061098657fe5b60200201356040518082815260200191505060405180910390a250505050565b600181815481106109b357fe5b90600052602060002090600702016000915090508060000154908060010160009054906101000a900473ffffffffffffffffffffffffffffffffffffffff16908060020154908060030154908060040154908060060154905086565b6000610a1961223b565b604051806040016040528087600060028110610a3157fe5b6020020151815260200187600160028110610a4857fe5b602002015181525081600001819052506040518060400160405280604051806040016040528088600060028110610a7b57fe5b6020020151600060028110610a8c57fe5b6020020151815260200188600060028110610aa357fe5b6020020151600160028110610ab457fe5b60200201518152508152602001604051806040016040528088600160028110610ad957fe5b6020020151600060028110610aea57fe5b6020020151815260200188600160028110610b0157fe5b6020020151600160028110610b1257fe5b60200201518152508152508160200181905250604051806040016040528085600060028110610b3d57fe5b6020020151815260200185600160028110610b5457fe5b602002015181525081604001819052506060600467ffffffffffffffff81118015610b7e57600080fd5b50604051908082528060200260200182016040528015610bad5781602001602082028036833780820191505090505b50905060008090505b6004811015610bf557848160048110610bcb57fe5b6020020151828281518110610bdc57fe5b6020026020010181815250508080600101915050610bb6565b506000610c028284611344565b1415610c1357600192505050610c1a565b6000925050505b949350505050565b60006020528060005260406000206000915090505481565b806000803373ffffffffffffffffffffffffffffffffffffffff1673ffffffffffffffffffffffffffffffffffffffff168152602001908152602001600020541415610cee576040517f08c379a00000000000000000000000000000000000000000000000000000000081526004018080602001828103825260048152602001807f453030300000000000000000000000000000000000000000000000000000000081525060200191505060405180910390fd5b60008060003373ffffffffffffffffffffffffffffffffffffffff1673ffffffffffffffffffffffffffffffffffffffff1681526020019081526020016000205460001c9050816000803373ffffffffffffffffffffffffffffffffffffffff1673ffffffffffffffffffffffffffffffffffffffff168152602001908152602001600020819055506000811415610df0577f18ec7dd8c4d713eb3c2e0c61825f878a47e207600626611c5bc15009c743b4b63383604051808373ffffffffffffffffffffffffffffffffffffffff1673ffffffffffffffffffffffffffffffffffffffff1681526020018281526020019250505060405180910390a1610e5c565b7f6c46eb453c5219d7665e4dda98f6200b9c6978d989806dfc2d2b17dc03609c533383604051808373ffffffffffffffffffffffffffffffffffffffff1673ffffffffffffffffffffffffffffffffffffffff1681526020018281526020019250505060405180910390a15b5050565b6000801b6000803373ffffffffffffffffffffffffffffffffffffffff1673ffffffffffffffffffffffffffffffffffffffff168152602001908152602001600020541415610f17576040517f08c379a00000000000000000000000000000000000000000000000000000000081526004018080602001828103825260048152602001807f453130300000000000000000000000000000000000000000000000000000000081525060200191505060405180910390fd5b42821015610f8d576040517f08c379a00000000000000000000000000000000000000000000000000000000081526004018080602001828103825260048152602001807f453130310000000000000000000000000000000000000000000000000000000081525060200191505060405180910390fd5b808210611002576040517f08c379a00000000000000000000000000000000000000000000000000000000081526004018080602001828103825260048152602001807f453130320000000000000000000000000000000000000000000000000000000081525060200191505060405180910390fd5b61100a61226e565b8481600001818152505033816020019073ffffffffffffffffffffffffffffffffffffffff16908173ffffffffffffffffffffffffffffffffffffffff168152505083816040018181525050828160600181815250508181608001818152505060018190806001815401808255809150506001900390600052602060002090600702016000909190919091506000820151816000015560208201518160010160006101000a81548173ffffffffffffffffffffffffffffffffffffffff021916908373ffffffffffffffffffffffffffffffffffffffff16021790555060408201518160020155606082015181600301556080820151816004015560a08201518160050190805190602001906111219291906122c4565b5060c0820151816006015550507f8240970fe48e7326c1988bac710fa94e48ffac4c80da6f31d40e52fc71df105960018080549050036040518082815260200191505060405180910390a15050505050565b3373ffffffffffffffffffffffffffffffffffffffff166001838154811061119757fe5b906000526020600020906007020160010160009054906101000a900473ffffffffffffffffffffffffffffffffffffffff1673ffffffffffffffffffffffffffffffffffffffff1614611252576040517f08c379a00000000000000000000000000000000000000000000000000000000081526004018080602001828103825260048152602001807f453130340000000000000000000000000000000000000000000000000000000081525060200191505060405180910390fd5b6001828154811061125f57fe5b90600052602060002090600702016004015442116112e5576040517f08c379a00000000000000000000000000000000000000000000000000000000081526004018080602001828103825260048152602001807f453130350000000000000000000000000000000000000000000000000000000081525060200191505060405180910390fd5b80600183815481106112f357fe5b906000526020600020906007020160060181905550817fd9ac5bed27e458b82958e4b665ee6ef0c39530418b2a3aa91b29d85e4e80992e826040518082815260200191505060405180910390a25050565b6000807f30644e72e131a029b85045b68181585d2833e84879b9709143e1f593f00000019050611372612311565b61137a611578565b90508060800151516001865101146113fa576040517f08c379a00000000000000000000000000000000000000000000000000000000081526004018080602001828103825260128152602001807f76657269666965722d6261642d696e707574000000000000000000000000000081525060200191505060405180910390fd5b611402612358565b6040518060400160405280600081526020016000815250905060008090505b8651811015611501578387828151811061143757fe5b6020026020010151106114b2576040517f08c379a000000000000000000000000000000000000000000000000000000000815260040180806020018281038252601f8152602001807f76657269666965722d6774652d736e61726b2d7363616c61722d6669656c640081525060200191505060405180910390fd5b6114f2826114ed856080015160018501815181106114cc57fe5b60200260200101518a85815181106114e057fe5b6020026020010151611abe565b611bb9565b91508080600101915050611421565b5061152481836080015160008151811061151757fe5b6020026020010151611bb9565b905061155a6115368660000151611cd3565b8660200151846000015185602001518587604001518b604001518960600151611d6d565b61156a5760019350505050611572565b600093505050505b92915050565b611580612311565b60405180604001604052807f0b5dcd20b2c877922f1dc6b9ab7612a488a4960cf6a50d634ce5edd3b4aa752c81526020017f169014d5471334ecce07b840a4c8805ff5f56f53c9db7df42302d095eb80e8928152508160000181905250604051806040016040528060405180604001604052807f1df093d824dd1701460f1052df89350d338b2410321b80bff70ac2e82fa82ea881526020017f0760439e8ad5d8cc95834ec7f5b24c4ef0751ee6a2bf19ff47d20ded514448a8815250815260200160405180604001604052807f2537195b41b650638f1a3f1321794d0b3f8a5262d125a230fd0c8d207e7dec1981526020017f23956c43a3927d35d6ae322bcb65bddab490acd4387bc708ae55d583a96287f08152508152508160200181905250604051806040016040528060405180604001604052807f198e9393920d483a7260bfb731fb5d25f1aa493335a9e71297e485b7aef312c281526020017f1800deef121f1e76426a00665e5c4479674322d4f75edadd46debd5cd992f6ed815250815260200160405180604001604052807f090689d0585ff075ec9e99ad690c3395bc4b313370b38ef355acdadcd122975b81526020017f12c85ea5db8c6deb4aab71808dcb408fe3d1e7690c43d37b4ce6cc0166fa7daa8152508152508160400181905250604051806040016040528060405180604001604052807f1bdb443ce61ebcf93daed4215a57e1cec90ca64973023e31197a112e8cee72f681526020017f117e26c4235f42625b3404f2973059814ff260dba7176d7aae910f493a8e1fb5815250815260200160405180604001604052807f196e247a12f580e36894f256f0c122393489b4c213b3e913250feee806ca45ff81526020017f2fedff4e4bbcbf9f1c56e28a060d50eef5f54e2aab897f6b465acd2ed005ae918152508152508160600181905250600567ffffffffffffffff8111801561184457600080fd5b5060405190808252806020026020018201604052801561187e57816020015b61186b612358565b8152602001906001900390816118635790505b50816080018190525060405180604001604052807e1dd0087414967abb8f4a2e62c2dce8e3d92b97c3ff2dc43fdb52aa96e0b16781526020017f1674b6f31bd90de4bcd609d01a26002299bb8bdae149fbcde138c80b89ff59c581525081608001516000815181106118ec57fe5b602002602001018190525060405180604001604052807f27e4500c649cc54f1a0dc15705b013bf581e6e215e4a9d1bd046118b42bc2d2981526020017f0271bf25e9f22811ae3ea09da60f2aa85498d6461626284279b790f15502f520815250816080015160018151811061195d57fe5b602002602001018190525060405180604001604052807f17f90dfe616b870acab922283a9da780bfcad51834c09be7a49fcbdc112660b781526020017f03a98276cfbb5a5081f5e4cdd480b085ef48fbbb5979a6af1f57baa6df51bd6681525081608001516002815181106119ce57fe5b602002602001018190525060405180604001604052807f0d2fe5fc14686a1f64d524f13c13c8285822417b126da0d8818d5c315618886b81526020017f1f45625b0b6e67b2c9333f90126e06cc3b74724732c9adc4c904e73c69dc854f8152508160800151600381518110611a3f57fe5b602002602001018190525060405180604001604052807f296af47b4eaed470599f990192125e447eb9d7f18bd7c362fb296690dd0d8f7581526020017f0aec328a7f562cf1fac8489d3f5a8c576a486e0bdc8ce87f8f4f686386f23f4e8152508160800151600481518110611ab057fe5b602002602001018190525090565b611ac6612358565b611ace612372565b836000015181600060038110611ae057fe5b602002018181525050836020015181600160038110611afb57fe5b6020020181815250508281600260038110611b1257fe5b602002018181525050600060608360808460076107d05a03fa90508060008114611b3b57611b3d565bfe5b5080611bb1576040517f08c379a00000000000000000000000000000000000000000000000000000000081526004018080602001828103825260128152602001807f70616972696e672d6d756c2d6661696c6564000000000000000000000000000081525060200191505060405180910390fd5b505092915050565b611bc1612358565b611bc9612394565b836000015181600060048110611bdb57fe5b602002018181525050836020015181600160048110611bf657fe5b602002018181525050826000015181600260048110611c1157fe5b602002018181525050826020015181600360048110611c2c57fe5b602002018181525050600060608360c08460066107d05a03fa90508060008114611c5557611c57565bfe5b5080611ccb576040517f08c379a00000000000000000000000000000000000000000000000000000000081526004018080602001828103825260128152602001807f70616972696e672d6164642d6661696c6564000000000000000000000000000081525060200191505060405180910390fd5b505092915050565b611cdb612358565b60007f30644e72e131a029b85045b68181585d97816a916871ca8d3c208c16d87cfd47905060008360000151148015611d18575060008360200151145b15611d3c576040518060400160405280600081526020016000815250915050611d68565b60405180604001604052808460000151815260200182856020015181611d5e57fe5b0683038152509150505b919050565b60006060600467ffffffffffffffff81118015611d8957600080fd5b50604051908082528060200260200182016040528015611dc357816020015b611db0612358565b815260200190600190039081611da85790505b5090506060600467ffffffffffffffff81118015611de057600080fd5b50604051908082528060200260200182016040528015611e1a57816020015b611e076123b6565b815260200190600190039081611dff5790505b5090508a82600081518110611e2b57fe5b60200260200101819052508882600181518110611e4457fe5b60200260200101819052508682600281518110611e5d57fe5b60200260200101819052508482600381518110611e7657fe5b60200260200101819052508981600081518110611e8f57fe5b60200260200101819052508781600181518110611ea857fe5b60200260200101819052508581600281518110611ec157fe5b60200260200101819052508381600381518110611eda57fe5b6020026020010181905250611eef8282611eff565b9250505098975050505050505050565b60008151835114611f78576040517f08c379a00000000000000000000000000000000000000000000000000000000081526004018080602001828103825260168152602001807f70616972696e672d6c656e677468732d6661696c65640000000000000000000081525060200191505060405180910390fd5b600083519050600060068202905060608167ffffffffffffffff81118015611f9f57600080fd5b50604051908082528060200260200182016040528015611fce5781602001602082028036833780820191505090505b50905060008090505b8381101561217457868181518110611feb57fe5b60200260200101516000015182600060068402018151811061200957fe5b60200260200101818152505086818151811061202157fe5b60200260200101516020015182600160068402018151811061203f57fe5b60200260200101818152505085818151811061205757fe5b60200260200101516000015160006002811061206f57fe5b602002015182600260068402018151811061208657fe5b60200260200101818152505085818151811061209e57fe5b6020026020010151600001516001600281106120b657fe5b60200201518260036006840201815181106120cd57fe5b6020026020010181815250508581815181106120e557fe5b6020026020010151602001516000600281106120fd57fe5b602002015182600460068402018151811061211457fe5b60200260200101818152505085818151811061212c57fe5b60200260200101516020015160016002811061214457fe5b602002015182600560068402018151811061215b57fe5b6020026020010181815250508080600101915050611fd7565b5061217d6123dc565b6000602082602086026020860160086107d05a03fa905080600081146121a2576121a4565bfe5b5080612218576040517f08c379a00000000000000000000000000000000000000000000000000000000081526004018080602001828103825260158152602001807f70616972696e672d6f70636f64652d6661696c6564000000000000000000000081525060200191505060405180910390fd5b60008260006001811061222757fe5b602002015114159550505050505092915050565b604051806060016040528061224e612358565b815260200161225b6123b6565b8152602001612268612358565b81525090565b6040518060e0016040528060008019168152602001600073ffffffffffffffffffffffffffffffffffffffff16815260200160008152602001600081526020016000815260200160608152602001600081525090565b828054828255906000526020600020908101928215612300579160200282015b828111156122ff5782518255916020019190600101906122e4565b5b50905061230d91906123fe565b5090565b6040518060a00160405280612324612358565b81526020016123316123b6565b815260200161233e6123b6565b815260200161234b6123b6565b8152602001606081525090565b604051806040016040528060008152602001600081525090565b6040518060600160405280600390602082028036833780820191505090505090565b6040518060800160405280600490602082028036833780820191505090505090565b60405180604001604052806123c9612423565b81526020016123d6612423565b81525090565b6040518060200160405280600190602082028036833780820191505090505090565b61242091905b8082111561241c576000816000905550600101612404565b5090565b90565b604051806040016040528060029060208202803683378082019150509050509056fea2646970667358221220b9ac1adc9bb3335b6a87fbd77d9d88d720c5eaee28134cfd52d4fc8ab9c631d864736f6c634300060b0033",
  "linkReferences": {},
  "deployedLinkReferences": {}
}