{
  "_format": "hh-sol-artifact-1",
  "contractName": "Elekton",
  "sourceName": "contracts/Elekton.sol",
  "abi": [
    {
      "anonymous": false,
      "inputs": [
        {
          "indexed": false,
          "internalType": "uint256",
          "name": "_index",
          "type": "uint256"
        }
      ],
      "name": "BallotCreated",
      "type": "event"
    },
    {
      "anonymous": false,
      "inputs": [
        {
          "indexed": true,
          "internalType": "uint256",
          "name": "_index",
          "type": "uint256"
        },
        {
          "indexed": false,
          "internalType": "uint256",
          "name": "_decryptionKey",
          "type": "uint256"
        }
      ],
      "name": "DecryptionKeyPublished",
      "type": "event"
    },
    {
      "anonymous": false,
      "inputs": [
        {
          "indexed": false,
          "internalType": "address",
          "name": "_address",
          "type": "address"
        },
        {
          "indexed": false,
          "internalType": "bytes32",
          "name": "_data",
          "type": "bytes32"
        }
      ],
      "name": "UserCreated",
      "type": "event"
    },
    {
      "anonymous": false,
      "inputs": [
        {
          "indexed": false,
          "internalType": "address",
          "name": "_address",
          "type": "address"
        },
        {
          "indexed": false,
          "internalType": "bytes32",
          "name": "_data",
          "type": "bytes32"
        }
      ],
      "name": "UserUpdated",
      "type": "event"
    },
    {
      "anonymous": false,
      "inputs": [
        {
          "indexed": true,
          "internalType": "uint256",
          "name": "_index",
          "type": "uint256"
        },
        {
          "indexed": false,
          "internalType": "uint256",
          "name": "_vote",
          "type": "uint256"
        }
      ],
      "name": "VoteAdded",
      "type": "event"
    },
    {
      "inputs": [
        {
          "internalType": "uint256",
          "name": "",
          "type": "uint256"
        }
      ],
      "name": "ballots",
      "outputs": [
        {
          "internalType": "bytes32",
          "name": "data",
          "type": "bytes32"
        },
        {
          "internalType": "address",
          "name": "admin",
          "type": "address"
        },
        {
          "internalType": "uint256",
          "name": "smtRoot",
          "type": "uint256"
        },
        {
          "internalType": "uint256",
          "name": "startDate",
          "type": "uint256"
        },
        {
          "internalType": "uint256",
          "name": "endDate",
          "type": "uint256"
        }
      ],
      "stateMutability": "view",
      "type": "function"
    },
    {
      "inputs": [
        {
          "internalType": "bytes32",
          "name": "_data",
          "type": "bytes32"
        },
        {
          "internalType": "uint256",
          "name": "_smtRoot",
          "type": "uint256"
        },
        {
          "internalType": "uint256",
          "name": "_startDate",
          "type": "uint256"
        },
        {
          "internalType": "uint256",
          "name": "_endDate",
          "type": "uint256"
        }
      ],
      "name": "createBallot",
      "outputs": [],
      "stateMutability": "nonpayable",
      "type": "function"
    },
    {
      "inputs": [
        {
          "internalType": "bytes32",
          "name": "_data",
          "type": "bytes32"
        }
      ],
      "name": "createUser",
      "outputs": [],
      "stateMutability": "nonpayable",
      "type": "function"
    },
    {
      "inputs": [
        {
          "internalType": "uint256",
          "name": "_ballotIndex",
          "type": "uint256"
        },
        {
          "internalType": "uint256",
          "name": "_decryptionKey",
          "type": "uint256"
        }
      ],
      "name": "publishDecryptionKey",
      "outputs": [],
      "stateMutability": "nonpayable",
      "type": "function"
    },
    {
      "inputs": [
        {
          "internalType": "address",
          "name": "",
          "type": "address"
        }
      ],
      "name": "users",
      "outputs": [
        {
          "internalType": "bytes32",
          "name": "",
          "type": "bytes32"
        }
      ],
      "stateMutability": "view",
      "type": "function"
    },
    {
      "inputs": [
        {
          "internalType": "uint256[2]",
          "name": "a",
          "type": "uint256[2]"
        },
        {
          "internalType": "uint256[2][2]",
          "name": "b",
          "type": "uint256[2][2]"
        },
        {
          "internalType": "uint256[2]",
          "name": "c",
          "type": "uint256[2]"
        },
        {
          "internalType": "uint256[4]",
          "name": "input",
          "type": "uint256[4]"
        }
      ],
      "name": "verifyProof",
      "outputs": [
        {
          "internalType": "bool",
          "name": "r",
          "type": "bool"
        }
      ],
      "stateMutability": "view",
      "type": "function"
    },
    {
      "inputs": [
        {
          "internalType": "uint256[2]",
          "name": "_a",
          "type": "uint256[2]"
        },
        {
          "internalType": "uint256[2][2]",
          "name": "_b",
          "type": "uint256[2][2]"
        },
        {
          "internalType": "uint256[2]",
          "name": "_c",
          "type": "uint256[2]"
        },
        {
          "internalType": "uint256[4]",
          "name": "_input",
          "type": "uint256[4]"
        }
      ],
      "name": "vote",
      "outputs": [],
      "stateMutability": "nonpayable",
      "type": "function"
    },
    {
      "inputs": [
        {
          "internalType": "uint256",
          "name": "",
          "type": "uint256"
        }
      ],
      "name": "voteNullifier",
      "outputs": [
        {
          "internalType": "bool",
          "name": "",
          "type": "bool"
        }
      ],
      "stateMutability": "view",
      "type": "function"
    }
  ],
  "bytecode": "0x608060405234801561001057600080fd5b506123ae806100206000396000f3fe608060405234801561001057600080fd5b50600436106100885760003560e01c8063abf7bfd81161005b578063abf7bfd814610335578063ae80d4b314610363578063d9a4d177146103af578063f839a790146103e757610088565b80632e0a9cff1461008d5780635c632b38146100da5780635fe8c13b14610164578063a87430ba146102dd575b600080fd5b6100d860048036036101808110156100a457600080fd5b810190808060400190919291929080608001909192919290806040019091929192908060800190919291929050505061042d565b005b610106600480360360208110156100f057600080fd5b8101908080359060200190929190505050610989565b604051808681526020018573ffffffffffffffffffffffffffffffffffffffff1673ffffffffffffffffffffffffffffffffffffffff1681526020018481526020018381526020018281526020019550505050505060405180910390f35b6102c3600480360361018081101561017b57600080fd5b8101908080604001906002806020026040519081016040528092919082600260200280828437600081840152601f19601f82011690508083019250505050505091929192908060800190600280602002604051908101604052809291906000905b82821015610230578382604002016002806020026040519081016040528092919082600260200280828437600081840152601f19601f820116905080830192505050505050815260200190600101906101dc565b50505050919291929080604001906002806020026040519081016040528092919082600260200280828437600081840152601f19601f820116905080830192505050505050919291929080608001906004806020026040519081016040528092919082600460200280828437600081840152601f19601f82011690508083019250505050505091929192905050506109ec565b604051808215151515815260200191505060405180910390f35b61031f600480360360208110156102f357600080fd5b81019080803573ffffffffffffffffffffffffffffffffffffffff169060200190929190505050610bff565b6040518082815260200191505060405180910390f35b6103616004803603602081101561034b57600080fd5b8101908080359060200190929190505050610c17565b005b6103ad6004803603608081101561037957600080fd5b8101908080359060200190929190803590602001909291908035906020019092919080359060200190929190505050610e3d565b005b6103e5600480360360408110156103c557600080fd5b810190808035906020019092919080359060200190929190505050611129565b005b610413600480360360208110156103fd57600080fd5b81019080803590602001909291905050506112d7565b604051808215151515815260200191505060405180910390f35b6001805490508160026004811061044057fe5b6020020135106104b8576040517f08c379a00000000000000000000000000000000000000000000000000000000081526004018080602001828103825260048152602001807f453230300000000000000000000000000000000000000000000000000000000081525060200191505060405180910390fd5b6001816002600481106104c757fe5b6020020135815481106104d657fe5b906000526020600020906005020160030154421161055c576040517f08c379a00000000000000000000000000000000000000000000000000000000081526004018080602001828103825260048152602001807f453230310000000000000000000000000000000000000000000000000000000081525060200191505060405180910390fd5b60018160026004811061056b57fe5b60200201358154811061057a57fe5b9060005260206000209060050201600401544210610600576040517f08c379a00000000000000000000000000000000000000000000000000000000081526004018080602001828103825260048152602001807f453230320000000000000000000000000000000000000000000000000000000081525060200191505060405180910390fd5b60018160026004811061060f57fe5b60200201358154811061061e57fe5b9060005260206000209060050201600201548160006004811061063d57fe5b6020020135146106b5576040517f08c379a00000000000000000000000000000000000000000000000000000000081526004018080602001828103825260048152602001807f453230330000000000000000000000000000000000000000000000000000000081525060200191505060405180910390fd5b60026000826003600481106106c657fe5b6020020135815260200190815260200160002060009054906101000a900460ff161561075a576040517f08c379a00000000000000000000000000000000000000000000000000000000081526004018080602001828103825260048152602001807f453230340000000000000000000000000000000000000000000000000000000081525060200191505060405180910390fd5b61087a846002806020026040519081016040528092919082600260200280828437600081840152601f19601f82011690508083019250505050505084600280602002604051908101604052809291906000905b82821015610801578382604002016002806020026040519081016040528092919082600260200280828437600081840152601f19601f820116905080830192505050505050815260200190600101906107ad565b50505050846002806020026040519081016040528092919082600260200280828437600081840152601f19601f820116905080830192505050505050846004806020026040519081016040528092919082600460200280828437600081840152601f19601f8201169050808301925050505050506109ec565b6108ec576040517f08c379a00000000000000000000000000000000000000000000000000000000081526004018080602001828103825260048152602001807f453230350000000000000000000000000000000000000000000000000000000081525060200191505060405180910390fd5b600160026000836003600481106108ff57fe5b6020020135815260200190815260200160002060006101000a81548160ff0219169083151502179055508060026004811061093657fe5b60200201357fd4d383f8ed189d1368006d33d0ae7bf1e4fe9f3f86f205ae60d7a50bbba58b388260016004811061096957fe5b60200201356040518082815260200191505060405180910390a250505050565b6001818154811061099657fe5b90600052602060002090600502016000915090508060000154908060010160009054906101000a900473ffffffffffffffffffffffffffffffffffffffff16908060020154908060030154908060040154905085565b60006109f66121ee565b604051806040016040528087600060028110610a0e57fe5b6020020151815260200187600160028110610a2557fe5b602002015181525081600001819052506040518060400160405280604051806040016040528088600060028110610a5857fe5b6020020151600060028110610a6957fe5b6020020151815260200188600060028110610a8057fe5b6020020151600160028110610a9157fe5b60200201518152508152602001604051806040016040528088600160028110610ab657fe5b6020020151600060028110610ac757fe5b6020020151815260200188600160028110610ade57fe5b6020020151600160028110610aef57fe5b60200201518152508152508160200181905250604051806040016040528085600060028110610b1a57fe5b6020020151815260200185600160028110610b3157fe5b602002015181525081604001819052506060600467ffffffffffffffff81118015610b5b57600080fd5b50604051908082528060200260200182016040528015610b8a5781602001602082028036833780820191505090505b50905060008090505b6004811015610bd257848160048110610ba857fe5b6020020151828281518110610bb957fe5b6020026020010181815250508080600101915050610b93565b506000610bdf82846112f7565b1415610bf057600192505050610bf7565b6000925050505b949350505050565b60006020528060005260406000206000915090505481565b806000803373ffffffffffffffffffffffffffffffffffffffff1673ffffffffffffffffffffffffffffffffffffffff168152602001908152602001600020541415610ccb576040517f08c379a00000000000000000000000000000000000000000000000000000000081526004018080602001828103825260048152602001807f453030300000000000000000000000000000000000000000000000000000000081525060200191505060405180910390fd5b60008060003373ffffffffffffffffffffffffffffffffffffffff1673ffffffffffffffffffffffffffffffffffffffff1681526020019081526020016000205460001c9050816000803373ffffffffffffffffffffffffffffffffffffffff1673ffffffffffffffffffffffffffffffffffffffff168152602001908152602001600020819055506000811415610dcd577f18ec7dd8c4d713eb3c2e0c61825f878a47e207600626611c5bc15009c743b4b63383604051808373ffffffffffffffffffffffffffffffffffffffff1673ffffffffffffffffffffffffffffffffffffffff1681526020018281526020019250505060405180910390a1610e39565b7f6c46eb453c5219d7665e4dda98f6200b9c6978d989806dfc2d2b17dc03609c533383604051808373ffffffffffffffffffffffffffffffffffffffff1673ffffffffffffffffffffffffffffffffffffffff1681526020018281526020019250505060405180910390a15b5050565b6000801b6000803373ffffffffffffffffffffffffffffffffffffffff1673ffffffffffffffffffffffffffffffffffffffff168152602001908152602001600020541415610ef4576040517f08c379a00000000000000000000000000000000000000000000000000000000081526004018080602001828103825260048152602001807f453130300000000000000000000000000000000000000000000000000000000081525060200191505060405180910390fd5b42821015610f6a576040517f08c379a00000000000000000000000000000000000000000000000000000000081526004018080602001828103825260048152602001807f453130310000000000000000000000000000000000000000000000000000000081525060200191505060405180910390fd5b808210610fdf576040517f08c379a00000000000000000000000000000000000000000000000000000000081526004018080602001828103825260048152602001807f453130320000000000000000000000000000000000000000000000000000000081525060200191505060405180910390fd5b610fe7612221565b8481600001818152505033816020019073ffffffffffffffffffffffffffffffffffffffff16908173ffffffffffffffffffffffffffffffffffffffff168152505083816040018181525050828160600181815250508181608001818152505060018190806001815401808255809150506001900390600052602060002090600502016000909190919091506000820151816000015560208201518160010160006101000a81548173ffffffffffffffffffffffffffffffffffffffff021916908373ffffffffffffffffffffffffffffffffffffffff16021790555060408201518160020155606082015181600301556080820151816004015550507f8240970fe48e7326c1988bac710fa94e48ffac4c80da6f31d40e52fc71df105960018080549050036040518082815260200191505060405180910390a15050505050565b3373ffffffffffffffffffffffffffffffffffffffff166001838154811061114d57fe5b906000526020600020906005020160010160009054906101000a900473ffffffffffffffffffffffffffffffffffffffff1673ffffffffffffffffffffffffffffffffffffffff1614611208576040517f08c379a00000000000000000000000000000000000000000000000000000000081526004018080602001828103825260048152602001807f453130340000000000000000000000000000000000000000000000000000000081525060200191505060405180910390fd5b6001828154811061121557fe5b906000526020600020906005020160040154421161129b576040517f08c379a00000000000000000000000000000000000000000000000000000000081526004018080602001828103825260048152602001807f453130350000000000000000000000000000000000000000000000000000000081525060200191505060405180910390fd5b817fd9ac5bed27e458b82958e4b665ee6ef0c39530418b2a3aa91b29d85e4e80992e826040518082815260200191505060405180910390a25050565b60026020528060005260406000206000915054906101000a900460ff1681565b6000807f30644e72e131a029b85045b68181585d2833e84879b9709143e1f593f00000019050611325612269565b61132d61152b565b90508060800151516001865101146113ad576040517f08c379a00000000000000000000000000000000000000000000000000000000081526004018080602001828103825260128152602001807f76657269666965722d6261642d696e707574000000000000000000000000000081525060200191505060405180910390fd5b6113b56122b0565b6040518060400160405280600081526020016000815250905060008090505b86518110156114b457838782815181106113ea57fe5b602002602001015110611465576040517f08c379a000000000000000000000000000000000000000000000000000000000815260040180806020018281038252601f8152602001807f76657269666965722d6774652d736e61726b2d7363616c61722d6669656c640081525060200191505060405180910390fd5b6114a5826114a08560800151600185018151811061147f57fe5b60200260200101518a858151811061149357fe5b6020026020010151611a71565b611b6c565b915080806001019150506113d4565b506114d78183608001516000815181106114ca57fe5b6020026020010151611b6c565b905061150d6114e98660000151611c86565b8660200151846000015185602001518587604001518b604001518960600151611d20565b61151d5760019350505050611525565b600093505050505b92915050565b611533612269565b60405180604001604052807f0b5dcd20b2c877922f1dc6b9ab7612a488a4960cf6a50d634ce5edd3b4aa752c81526020017f169014d5471334ecce07b840a4c8805ff5f56f53c9db7df42302d095eb80e8928152508160000181905250604051806040016040528060405180604001604052807f1df093d824dd1701460f1052df89350d338b2410321b80bff70ac2e82fa82ea881526020017f0760439e8ad5d8cc95834ec7f5b24c4ef0751ee6a2bf19ff47d20ded514448a8815250815260200160405180604001604052807f2537195b41b650638f1a3f1321794d0b3f8a5262d125a230fd0c8d207e7dec1981526020017f23956c43a3927d35d6ae322bcb65bddab490acd4387bc708ae55d583a96287f08152508152508160200181905250604051806040016040528060405180604001604052807f198e9393920d483a7260bfb731fb5d25f1aa493335a9e71297e485b7aef312c281526020017f1800deef121f1e76426a00665e5c4479674322d4f75edadd46debd5cd992f6ed815250815260200160405180604001604052807f090689d0585ff075ec9e99ad690c3395bc4b313370b38ef355acdadcd122975b81526020017f12c85ea5db8c6deb4aab71808dcb408fe3d1e7690c43d37b4ce6cc0166fa7daa8152508152508160400181905250604051806040016040528060405180604001604052807f1bdb443ce61ebcf93daed4215a57e1cec90ca64973023e31197a112e8cee72f681526020017f117e26c4235f42625b3404f2973059814ff260dba7176d7aae910f493a8e1fb5815250815260200160405180604001604052807f196e247a12f580e36894f256f0c122393489b4c213b3e913250feee806ca45ff81526020017f2fedff4e4bbcbf9f1c56e28a060d50eef5f54e2aab897f6b465acd2ed005ae918152508152508160600181905250600567ffffffffffffffff811180156117f757600080fd5b5060405190808252806020026020018201604052801561183157816020015b61181e6122b0565b8152602001906001900390816118165790505b50816080018190525060405180604001604052807e1dd0087414967abb8f4a2e62c2dce8e3d92b97c3ff2dc43fdb52aa96e0b16781526020017f1674b6f31bd90de4bcd609d01a26002299bb8bdae149fbcde138c80b89ff59c5815250816080015160008151811061189f57fe5b602002602001018190525060405180604001604052807f27e4500c649cc54f1a0dc15705b013bf581e6e215e4a9d1bd046118b42bc2d2981526020017f0271bf25e9f22811ae3ea09da60f2aa85498d6461626284279b790f15502f520815250816080015160018151811061191057fe5b602002602001018190525060405180604001604052807f17f90dfe616b870acab922283a9da780bfcad51834c09be7a49fcbdc112660b781526020017f03a98276cfbb5a5081f5e4cdd480b085ef48fbbb5979a6af1f57baa6df51bd66815250816080015160028151811061198157fe5b602002602001018190525060405180604001604052807f0d2fe5fc14686a1f64d524f13c13c8285822417b126da0d8818d5c315618886b81526020017f1f45625b0b6e67b2c9333f90126e06cc3b74724732c9adc4c904e73c69dc854f81525081608001516003815181106119f257fe5b602002602001018190525060405180604001604052807f296af47b4eaed470599f990192125e447eb9d7f18bd7c362fb296690dd0d8f7581526020017f0aec328a7f562cf1fac8489d3f5a8c576a486e0bdc8ce87f8f4f686386f23f4e8152508160800151600481518110611a6357fe5b602002602001018190525090565b611a796122b0565b611a816122ca565b836000015181600060038110611a9357fe5b602002018181525050836020015181600160038110611aae57fe5b6020020181815250508281600260038110611ac557fe5b602002018181525050600060608360808460076107d05a03fa90508060008114611aee57611af0565bfe5b5080611b64576040517f08c379a00000000000000000000000000000000000000000000000000000000081526004018080602001828103825260128152602001807f70616972696e672d6d756c2d6661696c6564000000000000000000000000000081525060200191505060405180910390fd5b505092915050565b611b746122b0565b611b7c6122ec565b836000015181600060048110611b8e57fe5b602002018181525050836020015181600160048110611ba957fe5b602002018181525050826000015181600260048110611bc457fe5b602002018181525050826020015181600360048110611bdf57fe5b602002018181525050600060608360c08460066107d05a03fa90508060008114611c0857611c0a565bfe5b5080611c7e576040517f08c379a00000000000000000000000000000000000000000000000000000000081526004018080602001828103825260128152602001807f70616972696e672d6164642d6661696c6564000000000000000000000000000081525060200191505060405180910390fd5b505092915050565b611c8e6122b0565b60007f30644e72e131a029b85045b68181585d97816a916871ca8d3c208c16d87cfd47905060008360000151148015611ccb575060008360200151145b15611cef576040518060400160405280600081526020016000815250915050611d1b565b60405180604001604052808460000151815260200182856020015181611d1157fe5b0683038152509150505b919050565b60006060600467ffffffffffffffff81118015611d3c57600080fd5b50604051908082528060200260200182016040528015611d7657816020015b611d636122b0565b815260200190600190039081611d5b5790505b5090506060600467ffffffffffffffff81118015611d9357600080fd5b50604051908082528060200260200182016040528015611dcd57816020015b611dba61230e565b815260200190600190039081611db25790505b5090508a82600081518110611dde57fe5b60200260200101819052508882600181518110611df757fe5b60200260200101819052508682600281518110611e1057fe5b60200260200101819052508482600381518110611e2957fe5b60200260200101819052508981600081518110611e4257fe5b60200260200101819052508781600181518110611e5b57fe5b60200260200101819052508581600281518110611e7457fe5b60200260200101819052508381600381518110611e8d57fe5b6020026020010181905250611ea28282611eb2565b9250505098975050505050505050565b60008151835114611f2b576040517f08c379a00000000000000000000000000000000000000000000000000000000081526004018080602001828103825260168152602001807f70616972696e672d6c656e677468732d6661696c65640000000000000000000081525060200191505060405180910390fd5b600083519050600060068202905060608167ffffffffffffffff81118015611f5257600080fd5b50604051908082528060200260200182016040528015611f815781602001602082028036833780820191505090505b50905060008090505b8381101561212757868181518110611f9e57fe5b602002602001015160000151826000600684020181518110611fbc57fe5b602002602001018181525050868181518110611fd457fe5b602002602001015160200151826001600684020181518110611ff257fe5b60200260200101818152505085818151811061200a57fe5b60200260200101516000015160006002811061202257fe5b602002015182600260068402018151811061203957fe5b60200260200101818152505085818151811061205157fe5b60200260200101516000015160016002811061206957fe5b602002015182600360068402018151811061208057fe5b60200260200101818152505085818151811061209857fe5b6020026020010151602001516000600281106120b057fe5b60200201518260046006840201815181106120c757fe5b6020026020010181815250508581815181106120df57fe5b6020026020010151602001516001600281106120f757fe5b602002015182600560068402018151811061210e57fe5b6020026020010181815250508080600101915050611f8a565b50612130612334565b6000602082602086026020860160086107d05a03fa9050806000811461215557612157565bfe5b50806121cb576040517f08c379a00000000000000000000000000000000000000000000000000000000081526004018080602001828103825260158152602001807f70616972696e672d6f70636f64652d6661696c6564000000000000000000000081525060200191505060405180910390fd5b6000826000600181106121da57fe5b602002015114159550505050505092915050565b60405180606001604052806122016122b0565b815260200161220e61230e565b815260200161221b6122b0565b81525090565b6040518060a0016040528060008019168152602001600073ffffffffffffffffffffffffffffffffffffffff1681526020016000815260200160008152602001600081525090565b6040518060a0016040528061227c6122b0565b815260200161228961230e565b815260200161229661230e565b81526020016122a361230e565b8152602001606081525090565b604051806040016040528060008152602001600081525090565b6040518060600160405280600390602082028036833780820191505090505090565b6040518060800160405280600490602082028036833780820191505090505090565b6040518060400160405280612321612356565b815260200161232e612356565b81525090565b6040518060200160405280600190602082028036833780820191505090505090565b604051806040016040528060029060208202803683378082019150509050509056fea264697066735822122001d527f54dc3996baf9e776588b313eb7d6b45640536460dde4211ac496996ca64736f6c634300060b0033",
  "linkReferences": {},
  "deployedLinkReferences": {}
}